:1000000002EF00F07F9C7F8E64ECFFF078ECFFF055
:1000100056ECFFF0956A0DEF00F004EE00F0010ED3
:10002000F86EFE0EF76E9E0EF66E0D0E056E090052
:10003000F5CFEEFF052EFBD70D0E24EE00F06DEC94
:10004000FFF00D0EFF0F24EE00F0B2ECFFF05DECC0
:0E005000FFF0836E27EF00F0062EFED71200A1
:020000040001F9
:10FE9E0048656C6C6F20576F726C64210A000F01FD
:10FEAE0053855393840E5F6F000112000F015F9311
:10FEBE005F915C51076E00011200AB8EAC98AC9452
:10FECE00AC8A6596670EAF6E948C1200096EDE508A
:10FEDE0074ECFFF0092EFBD712009EA8FED7AD6E74
:10FEEE0012008A6AC00E936E280EEAECFFF0300EF6
:10FEFE00B9ECFFF00A0EF1ECFFF0280EB9ECFFF0B2
:10FF0E000A0EF1ECFFF0280EB9ECFFF00A0EF1EC40
:10FF1E00FFF00F0EB9ECFFF00A0EF1ECFFF0010E40
:10FF2E00B9ECFFF0020EEAECFFF0060EB9ECFFF0B2
:10FF3E000A0EF1ECFFF01200086E0838A8ECFFF084
:10FF4E0008500F0B036E0A0E0360070F260F0324D3
:10FF5E00C7ECFFF01200046EDE50C7ECFFF0042E6B
:10FF6E00FBD71200036E03380F0B8A6E8A98D8ECFB
:10FF7E00FFF003500F0B8A6E8A98D8ECFFF0120038
:10FF8E00036E03380F0B8A6E8A88D8ECFFF003508D
:10FF9E000F0B8A6E8A88D8ECFFF00A0EF1ECFFF098
:10FFAE001200000000000000000000000000000031
:10FFBE0000008A8A0000000000000000000000001F
:10FFCE0000008A9A1200026EFA0EF1ECFFF0022E79
:10FFDE00FBD71200006E003A0F0E0014016EF00EE9
:10FFEE000016FBECFFF01200000E0006015AFDE2B7
:02FFFE001200EF
:020000040030CA
:0700000015137F00B88B917E
:06000800FFC0FFE0FF4015
:00000001FF
